:100000000C942A000C9434000C9434000C943400AA
:100010000C9434000C9434000C9434000C94340090
:100020000C9434000C9434000C9434000C94340080
:100030000C9434000C9434000C9434000C94340070
:100040000C9434000C9434000C9434000C94340060
:100050000C94340011241FBECFE5D4E0DEBFCDBF29
:100060000E9436000C9440000C94000017BA8FEFE9
:1000700081BB88BB90E886B38F3FE9F792BBFBCF8B
:04008000F894FFCF22
:00000001FF
