:100000000C942A000C9434000C9434000C943400AA
:100010000C9434000C9434000C9434000C94340090
:100020000C9434000C9434000C9434000C94340080
:100030000C9434000C9434000C9434000C94340070
:100040000C9434000C9434000C9434000C94340060
:100050000C94340011241FBECFE5D4E0DEBFCDBF29
:100060000E9436000C94BA000C9400001F9311BA41
:100070008FEF87BB82BB1AE065E049E150E0A6E064
:1000800079E0B1E080B390E08F3F910511F418BBA7
:100090002FC08E3F910511F4A8BB2FC08D3F910555
:1000A00099F468BB20E737E1FA013197F1F7215065
:1000B0003040D1F778BB20EA3FE0FA013197F1F701
:1000C00021503040D1F741C08C3F910589F468BB85
:1000D00080E797E1FA013197F1F70197D9F7A8BBCB
:1000E00088E893E1FA013197F1F70197D9F7CACF80
:1000F0008B3F910511F4B8BBC5CF8A3F910589F4B8
:1001000068BB80E797E1FA013197F1F70197D9F7DA
:1001100078BB88E893E1FA013197F1F70197D9F7B5
:10012000B1CF893F910589F468BB80E797E1FA0177
:100130003197F1F70197D9F778BB88E893E1FA0195
:100140003197F1F70197D9F79DCF883F910509F0D5
:1001500099CF68BB80E797E1FA013197F1F70197F2
:10016000D9F778BB8FEF9FEFFA013197F1F701973D
:08017000D9F788CFF894FFCF06
:00000001FF
