:100000000C942A000C9434000C9434000C943400AA
:100010000C9434000C9434000C9434000C94340090
:100020000C9434000C9434000C9434000C94340080
:100030000C9434000C9434000C9434000C94340070
:100040000C9434000C9434000C9434000C94340060
:100050000C94340011241FBECFE5D4E0DEBFCDBF29
:100060000E9436000C94D1000C9400006F927F9295
:100070008F929F92AF92BF92CF92DF92EF92FF92B8
:100080000F931F93CF93DF9311BA8FEF87BB82BB80
:100090005AE0C0E5D3EC66E04CE8642E49EB742EE0
:1000A00075E034E2832E34EF932E49E028EDA22E42
:1000B00026EDB22EA9E1B0E098EEC92E9DEFD92E23
:1000C00080E4E82E8CE9F82E06EF11ED80B390E085
:1000D000803F910511F458BB29C0883F910571F408
:1000E00078BB28EB3BE0FD013197F1F72150304020
:1000F000D1F748BBFE013197F1F729C0843F910544
:1001000049F478BBF4013197F1F748BBF501319719
:10011000F1F72AC0823F910549F458BBFE0131979F
:10012000F1F768BBF3013197F1F723C0813F9105E7
:1001300071F458BBF6013197F1F748BB24E53BE079
:10014000FD013197F1F721503040D1F71AC0893FB6
:10015000910551F458BBF7013197F1F748BBF8010D
:100160003197F1F748BB0DC0833F910511F458BB9F
:100170000DC0863F910511F468BB0DC08E3F9105FF
:1001800019F0873F910511F468BBA0CF8B3F910513
:1001900011F448BB9BCF8D3F910509F097CF78BBF9
:0601A00095CFF894FFCF9B
:00000001FF
